:020000040000FA
:100000000A128A11FC2F00308A000408840A820731
:1000100000347E3430346D34793433345B345F34BF
:0600200070347F347B34D4
:100BD40083120313A101F80121080A128A112326A2
:100BE4000A128A11013083120313A0002008A107FE
:100BF4000830210203180800ED2DFB00FC01FD0163
:100C04007B08F900FA017908FC007A08FD007C08E9
:100C1400FA00F9017908FC007A08FD0000307C052F
:100C2400FC000F307D05FD007C087804FC007D0885
:100C3400FD007D08F1007C08F0000A128A118B2661
:100C44000800FB00FC01FD0108307B0203180800CA
:100C54007B08013EFC00003003180130FD007C08D5
:100C6400FA00F9017908FC007A08FD0000307C05DF
:100C7400FC000F307D05FD007808013E84000A1257
:100C84008A1103200A128A11F9007C087904FC00F5
:100C94007D08FD007D08F1007C08F0000A128A112D
:100CA4008B260800831603138712871307138312F6
:100CB4000313871287130717F8010C300A128A11DD
:100CC400FF250A128A11F8010F300A128A11FF2532
:100CD4000A128A110F3083120313A0002008F800AF
:100CE4000A300A128A11FF250A128A110730831268
:100CF4000313A0002008F8000B300A128A11FF2504
:100D04000A128A11F801F80A0C300A128A11FF2516
:100D14000800F501F601F701831203130713F70125
:100D2400103077020318C52E0130F5000030F600AC
:100D340077080F3CF200F20A7608F4007508F30015
:100D4400A62E0310F30DF40DF20BA32E7308F50079
:100D54007408F60070087505F20071087605F30052
:100D6400720873040319B82E8716B92E87128717D1
:100D7400BB2EBC2E00008312031387130130F20034
:100D84007208F707922E07170800831603138601CB
:100D94000A128A1154260A128A110A128A11EA25A1
:100DA4000A128A1183120313AC01AD0183120313D7
:100DB4002D08A3002C08A2000A128A1152270A1235
:100DC4008A11333083120313AB00BB30AA00DF3027
:100DD400A900A90BEB2EAA0BEB2EAB0BEB2E0130CB
:100DE40083120313AC070318AD0A0030AD072D08B6
:100DF400803AFF00A7307F02031D022F0F302C0220
:100E0400031CD82E0A128A110028F601F31F112F91
:100E1400F209F309F20A0319F30AF601F60AF11FBB
:100E2400182FF009F109F00A0319F10A7008710486
:100E34000319452FF501F50AF11B2C2F013003107E
:100E4400F00DF10DFF3E031D212F0130F400740855
:100E5400F5071E2F71087302031D322F70087202EA
:100E6400031C3A2F7008F2027108031CF303F30207
:100E740001300310F10CF00CFF3E031D3B2F013039
:100E8400F502031D2C2F760803194D2FF209F309DF
:100E9400F20A0319F30A7308F1007208F00008005B
:100EA40083120313A701A8010A128A11EA250A1260
:100EB4008A11831203132308803AFF0080307F02D3
:100EC400031D662F01302202031C08000A30F000C3
:100ED4000030F100831203132308F3002208F20008
:100EE4000A128A1107270A128A117108831203133E
:100EF400A6007008A5000A30F0000030F1002308B5
:100F0400F3002208F2000A128A11A3270A128A1196
:100F1400710883120313A3007008A2002508A4001B
:100F24002408F80027080A128A1123260A128A11B3
:100F3400013083120313A7070318A80A0030A80777
:100F44005B2FF601F11FAD2FF009F109F00A031927
:100F5400F10AF601F60AF31FB82FF209F309F20AAF
:100F64000319F30A0130F4007408F606F701F801D6
:100F7400700871040319EF2FF501F50AF11BCE2F48
:100F840001300310F00DF10DFF3E031DC32F01309E
:100F9400F4007408F507C02F01300310F70DF80DA5
:100FA400FF3E031DCF2F71087302031DDB2F700852
:100FB4007202031CE42F7008F2027108031CF3038D
:100FC400F302771401300310F10CF00CFF3E031D03
:100FD400E52F0130F502031DCE2F76080319F72FF4
:100FE400F709F809F70A0319F80A7808F1007708ED
:0C0FF400F000080083010A128A11C72EC9
:02400E00FA3F77
:00000001FF
