:020000040000FA
:060000000A128A11F02F24
:100F20003F3406345B344F3466346D347D340734DB
:100F30007F346F347E088A007F0882009A270A1265
:100F40008A118000840A04087D0603190034FF0A10
:100F50000319FE0A9E2F8316031388012030840094
:100F60002C30F0000408F1000A30F2007008840010
:100F700083130008F300F00A7108840073088000EE
:100F8000F10AF20BB62F83120313AA01AB018312ED
:100F900003132A08203E84008313000988000630CA
:100FA000F2001330F100AD30F000F00BD52FF10B53
:100FB000D52FF20BD52FDC2F013083120313AA0794
:100FC0000318AB0A0030AB072B08803AFF008030D3
:100FD0007F02031DED2F0A302A020318C32FC72FEB
:100FE00083133630FD000730FE009030FF002C30B8
:100FF00084000A128A119E2783010A128A11AB2FDC
:02400E00F93F78
:00000001FF
